{
  "_format": "hh-sol-artifact-1",
  "contractName": "ArbiGrid",
  "sourceName": "contracts/ArbiGrid.sol",
  "abi": [
    {
      "inputs": [],
      "stateMutability": "nonpayable",
      "type": "constructor"
    },
    {
      "inputs": [
        {
          "internalType": "address",
          "name": "owner",
          "type": "address"
        }
      ],
      "name": "OwnableInvalidOwner",
      "type": "error"
    },
    {
      "inputs": [
        {
          "internalType": "address",
          "name": "account",
          "type": "address"
        }
      ],
      "name": "OwnableUnauthorizedAccount",
      "type": "error"
    },
    {
      "inputs": [],
      "name": "ReentrancyGuardReentrantCall",
      "type": "error"
    },
    {
      "anonymous": false,
      "inputs": [
        {
          "indexed": true,
          "internalType": "address",
          "name": "seller",
          "type": "address"
        },
        {
          "indexed": true,
          "internalType": "uint256",
          "name": "orderId",
          "type": "uint256"
        },
        {
          "indexed": false,
          "internalType": "uint256",
          "name": "kwh",
          "type": "uint256"
        },
        {
          "indexed": false,
          "internalType": "uint256",
          "name": "pricePerKwh",
          "type": "uint256"
        },
        {
          "indexed": false,
          "internalType": "uint256",
          "name": "totalPrice",
          "type": "uint256"
        }
      ],
      "name": "EnergyListed",
      "type": "event"
    },
    {
      "anonymous": false,
      "inputs": [
        {
          "indexed": true,
          "internalType": "address",
          "name": "buyer",
          "type": "address"
        },
        {
          "indexed": true,
          "internalType": "address",
          "name": "seller",
          "type": "address"
        },
        {
          "indexed": true,
          "internalType": "uint256",
          "name": "orderId",
          "type": "uint256"
        },
        {
          "indexed": false,
          "internalType": "uint256",
          "name": "amount",
          "type": "uint256"
        }
      ],
      "name": "EnergyPurchased",
      "type": "event"
    },
    {
      "anonymous": false,
      "inputs": [
        {
          "indexed": true,
          "internalType": "address",
          "name": "user",
          "type": "address"
        },
        {
          "indexed": false,
          "internalType": "uint256",
          "name": "amount",
          "type": "uint256"
        }
      ],
      "name": "FundsDeposited",
      "type": "event"
    },
    {
      "anonymous": false,
      "inputs": [
        {
          "indexed": true,
          "internalType": "address",
          "name": "user",
          "type": "address"
        },
        {
          "indexed": false,
          "internalType": "uint256",
          "name": "amount",
          "type": "uint256"
        }
      ],
      "name": "FundsWithdrawn",
      "type": "event"
    },
    {
      "anonymous": false,
      "inputs": [
        {
          "indexed": true,
          "internalType": "address",
          "name": "previousOwner",
          "type": "address"
        },
        {
          "indexed": true,
          "internalType": "address",
          "name": "newOwner",
          "type": "address"
        }
      ],
      "name": "OwnershipTransferred",
      "type": "event"
    },
    {
      "stateMutability": "payable",
      "type": "fallback"
    },
    {
      "inputs": [],
      "name": "PERCENTAGE_BASE",
      "outputs": [
        {
          "internalType": "uint256",
          "name": "",
          "type": "uint256"
        }
      ],
      "stateMutability": "view",
      "type": "function"
    },
    {
      "inputs": [
        {
          "internalType": "address",
          "name": "",
          "type": "address"
        }
      ],
      "name": "balances",
      "outputs": [
        {
          "internalType": "uint256",
          "name": "",
          "type": "uint256"
        }
      ],
      "stateMutability": "view",
      "type": "function"
    },
    {
      "inputs": [
        {
          "internalType": "uint256",
          "name": "orderId",
          "type": "uint256"
        }
      ],
      "name": "cancelOrder",
      "outputs": [],
      "stateMutability": "nonpayable",
      "type": "function"
    },
    {
      "inputs": [
        {
          "internalType": "uint256",
          "name": "kwh",
          "type": "uint256"
        },
        {
          "internalType": "uint256",
          "name": "pricePerKwh",
          "type": "uint256"
        },
        {
          "internalType": "uint256",
          "name": "duration",
          "type": "uint256"
        }
      ],
      "name": "createSale",
      "outputs": [
        {
          "internalType": "uint256",
          "name": "",
          "type": "uint256"
        }
      ],
      "stateMutability": "nonpayable",
      "type": "function"
    },
    {
      "inputs": [],
      "name": "depositFunds",
      "outputs": [],
      "stateMutability": "payable",
      "type": "function"
    },
    {
      "inputs": [],
      "name": "getActiveOrders",
      "outputs": [
        {
          "components": [
            {
              "internalType": "address",
              "name": "seller",
              "type": "address"
            },
            {
              "internalType": "uint256",
              "name": "kwh",
              "type": "uint256"
            },
            {
              "internalType": "uint256",
              "name": "pricePerKwh",
              "type": "uint256"
            },
            {
              "internalType": "uint256",
              "name": "totalPrice",
              "type": "uint256"
            },
            {
              "internalType": "uint256",
              "name": "duration",
              "type": "uint256"
            },
            {
              "internalType": "uint256",
              "name": "createdAt",
              "type": "uint256"
            },
            {
              "internalType": "bool",
              "name": "active",
              "type": "bool"
            }
          ],
          "internalType": "struct ArbiGrid.EnergyOrder[]",
          "name": "",
          "type": "tuple[]"
        }
      ],
      "stateMutability": "view",
      "type": "function"
    },
    {
      "inputs": [
        {
          "internalType": "address",
          "name": "user",
          "type": "address"
        }
      ],
      "name": "getBalance",
      "outputs": [
        {
          "internalType": "uint256",
          "name": "",
          "type": "uint256"
        }
      ],
      "stateMutability": "view",
      "type": "function"
    },
    {
      "inputs": [
        {
          "internalType": "uint256",
          "name": "transactionId",
          "type": "uint256"
        }
      ],
      "name": "getTransaction",
      "outputs": [
        {
          "components": [
            {
              "internalType": "address",
              "name": "buyer",
              "type": "address"
            },
            {
              "internalType": "address",
              "name": "seller",
              "type": "address"
            },
            {
              "internalType": "uint256",
              "name": "orderId",
              "type": "uint256"
            },
            {
              "internalType": "uint256",
              "name": "amount",
              "type": "uint256"
            },
            {
              "internalType": "uint256",
              "name": "timestamp",
              "type": "uint256"
            },
            {
              "internalType": "bool",
              "name": "completed",
              "type": "bool"
            }
          ],
          "internalType": "struct ArbiGrid.Transaction",
          "name": "",
          "type": "tuple"
        }
      ],
      "stateMutability": "view",
      "type": "function"
    },
    {
      "inputs": [
        {
          "internalType": "address",
          "name": "user",
          "type": "address"
        }
      ],
      "name": "getUserOrders",
      "outputs": [
        {
          "internalType": "uint256[]",
          "name": "",
          "type": "uint256[]"
        }
      ],
      "stateMutability": "view",
      "type": "function"
    },
    {
      "inputs": [
        {
          "internalType": "address",
          "name": "user",
          "type": "address"
        }
      ],
      "name": "getUserTransactions",
      "outputs": [
        {
          "internalType": "uint256[]",
          "name": "",
          "type": "uint256[]"
        }
      ],
      "stateMutability": "view",
      "type": "function"
    },
    {
      "inputs": [],
      "name": "nextOrderId",
      "outputs": [
        {
          "internalType": "uint256",
          "name": "",
          "type": "uint256"
        }
      ],
      "stateMutability": "view",
      "type": "function"
    },
    {
      "inputs": [],
      "name": "nextTransactionId",
      "outputs": [
        {
          "internalType": "uint256",
          "name": "",
          "type": "uint256"
        }
      ],
      "stateMutability": "view",
      "type": "function"
    },
    {
      "inputs": [
        {
          "internalType": "uint256",
          "name": "",
          "type": "uint256"
        }
      ],
      "name": "orders",
      "outputs": [
        {
          "internalType": "address",
          "name": "seller",
          "type": "address"
        },
        {
          "internalType": "uint256",
          "name": "kwh",
          "type": "uint256"
        },
        {
          "internalType": "uint256",
          "name": "pricePerKwh",
          "type": "uint256"
        },
        {
          "internalType": "uint256",
          "name": "totalPrice",
          "type": "uint256"
        },
        {
          "internalType": "uint256",
          "name": "duration",
          "type": "uint256"
        },
        {
          "internalType": "uint256",
          "name": "createdAt",
          "type": "uint256"
        },
        {
          "internalType": "bool",
          "name": "active",
          "type": "bool"
        }
      ],
      "stateMutability": "view",
      "type": "function"
    },
    {
      "inputs": [],
      "name": "owner",
      "outputs": [
        {
          "internalType": "address",
          "name": "",
          "type": "address"
        }
      ],
      "stateMutability": "view",
      "type": "function"
    },
    {
      "inputs": [],
      "name": "platformFee",
      "outputs": [
        {
          "internalType": "uint256",
          "name": "",
          "type": "uint256"
        }
      ],
      "stateMutability": "view",
      "type": "function"
    },
    {
      "inputs": [
        {
          "internalType": "uint256",
          "name": "orderId",
          "type": "uint256"
        }
      ],
      "name": "purchaseEnergy",
      "outputs": [],
      "stateMutability": "payable",
      "type": "function"
    },
    {
      "inputs": [],
      "name": "renounceOwnership",
      "outputs": [],
      "stateMutability": "nonpayable",
      "type": "function"
    },
    {
      "inputs": [
        {
          "internalType": "uint256",
          "name": "",
          "type": "uint256"
        }
      ],
      "name": "transactions",
      "outputs": [
        {
          "internalType": "address",
          "name": "buyer",
          "type": "address"
        },
        {
          "internalType": "address",
          "name": "seller",
          "type": "address"
        },
        {
          "internalType": "uint256",
          "name": "orderId",
          "type": "uint256"
        },
        {
          "internalType": "uint256",
          "name": "amount",
          "type": "uint256"
        },
        {
          "internalType": "uint256",
          "name": "timestamp",
          "type": "uint256"
        },
        {
          "internalType": "bool",
          "name": "completed",
          "type": "bool"
        }
      ],
      "stateMutability": "view",
      "type": "function"
    },
    {
      "inputs": [
        {
          "internalType": "address",
          "name": "newOwner",
          "type": "address"
        }
      ],
      "name": "transferOwnership",
      "outputs": [],
      "stateMutability": "nonpayable",
      "type": "function"
    },
    {
      "inputs": [
        {
          "internalType": "uint256",
          "name": "newFee",
          "type": "uint256"
        }
      ],
      "name": "updatePlatformFee",
      "outputs": [],
      "stateMutability": "nonpayable",
      "type": "function"
    },
    {
      "inputs": [
        {
          "internalType": "address",
          "name": "",
          "type": "address"
        },
        {
          "internalType": "uint256",
          "name": "",
          "type": "uint256"
        }
      ],
      "name": "userOrders",
      "outputs": [
        {
          "internalType": "uint256",
          "name": "",
          "type": "uint256"
        }
      ],
      "stateMutability": "view",
      "type": "function"
    },
    {
      "inputs": [
        {
          "internalType": "address",
          "name": "",
          "type": "address"
        },
        {
          "internalType": "uint256",
          "name": "",
          "type": "uint256"
        }
      ],
      "name": "userTransactions",
      "outputs": [
        {
          "internalType": "uint256",
          "name": "",
          "type": "uint256"
        }
      ],
      "stateMutability": "view",
      "type": "function"
    },
    {
      "inputs": [],
      "name": "withdrawFunds",
      "outputs": [],
      "stateMutability": "nonpayable",
      "type": "function"
    },
    {
      "inputs": [],
      "name": "withdrawPlatformFees",
      "outputs": [],
      "stateMutability": "nonpayable",
      "type": "function"
    },
    {
      "stateMutability": "payable",
      "type": "receive"
    }
  ],
  "bytecode": "0x608060405260016006556001600755601960085534801561001f57600080fd5b506001600055338061004b57604051631e4fbdf760e01b81526000600482015260240160405180910390fd5b6100548161005a565b506100ac565b600180546001600160a01b038381166001600160a01b0319831681179093556040519116919082907f8be0079c531659141344cd1fd0a4f28419497f9722a3daafe3b4186f6b6457e090600090a35050565b61181a806100bb6000396000f3fe60806040526004361061014e5760003560e01c806387c13943116100b6578063d0b7830b1161006f578063d0b7830b146104b6578063d7ca38f3146104cb578063e2c41dbc1461015d578063ef925399146104e1578063f2fde38b14610501578063f8b2cb4f146105215761015d565b806387c13943146103385780638da5cb5b1461034e5780639ace38c214610376578063a85c38ef146103d0578063aa0b598814610476578063b842ec44146104965761015d565b8063514fcac711610108578063514fcac71461028357806363c69f08146102a35780636afe2520146102d05780636c1909ed146102e3578063715018a614610303578063856652e9146103185761015d565b806286e68b1461016557806324600fc31461019057806326232a2e146101a557806327e235e3146101c95780632a58b330146101f657806333ea3dc81461020c5761015d565b3661015d5761015b610557565b005b61015b610557565b34801561017157600080fd5b5061017a610607565b60405161018791906115a6565b60405180910390f35b34801561019c57600080fd5b5061015b610825565b3480156101b157600080fd5b506101bb60085481565b604051908152602001610187565b3480156101d557600080fd5b506101bb6101e436600461164f565b60036020526000908152604090205481565b34801561020257600080fd5b506101bb60065481565b34801561021857600080fd5b5061022c610227366004611671565b61095f565b604051610187919081516001600160a01b0390811682526020808401519091169082015260408083015190820152606080830151908201526080808301519082015260a09182015115159181019190915260c00190565b34801561028f57600080fd5b5061015b61029e366004611671565b610a61565b3480156102af57600080fd5b506102c36102be36600461164f565b610b20565b604051610187919061168a565b61015b6102de366004611671565b610b8c565b3480156102ef57600080fd5b506101bb6102fe3660046116ce565b610f97565b34801561030f57600080fd5b5061015b6111c3565b34801561032457600080fd5b506101bb6103333660046116fa565b6111d5565b34801561034457600080fd5b506101bb61271081565b34801561035a57600080fd5b506001546040516001600160a01b039091168152602001610187565b34801561038257600080fd5b50610396610391366004611671565b611206565b604080516001600160a01b0397881681529690951660208701529385019290925260608401526080830152151560a082015260c001610187565b3480156103dc57600080fd5b506104356103eb366004611671565b600260208190526000918252604090912080546001820154928201546003830154600484015460058501546006909501546001600160a01b03909416959492939192909160ff1687565b604080516001600160a01b0390981688526020880196909652948601939093526060850191909152608084015260a0830152151560c082015260e001610187565b34801561048257600080fd5b5061015b610491366004611671565b61125c565b3480156104a257600080fd5b506101bb6104b13660046116fa565b6112b2565b3480156104c257600080fd5b5061015b6112ce565b3480156104d757600080fd5b506101bb60075481565b3480156104ed57600080fd5b506102c36104fc36600461164f565b611458565b34801561050d57600080fd5b5061015b61051c36600461164f565b6114c2565b34801561052d57600080fd5b506101bb61053c36600461164f565b6001600160a01b031660009081526003602052604090205490565b600034116105ac5760405162461bcd60e51b815260206004820152601860248201527f4d757374206465706f736974206d6f7265207468616e2030000000000000000060448201526064015b60405180910390fd5b33600090815260036020526040812080543492906105cb90849061173a565b909155505060405134815233907f543ba50a5eec5e6178218e364b1d0f396157b3c8fa278522c2cb7fd99407d4749060200160405180910390a2565b6060600060015b6006548110156106805760008181526002602052604090206006015460ff16801561065b575060008181526002602052604090206004810154600590910154610657919061173a565b4211155b1561066e578161066a81611753565b9250505b8061067881611753565b91505061060e565b5060008167ffffffffffffffff81111561069c5761069c61176c565b60405190808252806020026020018201604052801561071857816020015b6107056040518060e0016040528060006001600160a01b0316815260200160008152602001600081526020016000815260200160008152602001600081526020016000151581525090565b8152602001906001900390816106ba5790505b509050600060015b60065481101561081c5760008181526002602052604090206006015460ff16801561076d575060008181526002602052604090206004810154600590910154610769919061173a565b4211155b1561080a57600081815260026020818152604092839020835160e08101855281546001600160a01b0316815260018201549281019290925291820154928101929092526003810154606083015260048101546080830152600581015460a08301526006015460ff16151560c082015283518490849081106107f0576107f0611782565b6020026020010181905250818061080690611753565b9250505b8061081481611753565b915050610720565b50909392505050565b61082d6114fd565b33600090815260036020526040902054806108815760405162461bcd60e51b81526020600482015260146024820152734e6f2066756e647320746f20776974686472617760601b60448201526064016105a3565b336000818152600360205260408082208290555190919083908381818185875af1925050503d80600081146108d2576040519150601f19603f3d011682016040523d82523d6000602084013e6108d7565b606091505b505090508061091c5760405162461bcd60e51b815260206004820152601160248201527015da5d1a191c985dd85b0819985a5b1959607a1b60448201526064016105a3565b60405182815233907feaff4b37086828766ad3268786972c0cd24259d4c87a80f9d3963a3c3d999b0d9060200160405180910390a2505061095d6001600055565b565b6040805160c081018252600080825260208201819052918101829052606081018290526080810182905260a081019190915260095482106109e25760405162461bcd60e51b815260206004820152601a60248201527f5472616e73616374696f6e20646f6573206e6f7420657869737400000000000060448201526064016105a3565b600982815481106109f5576109f5611782565b60009182526020918290206040805160c081018252600690930290910180546001600160a01b03908116845260018201541693830193909352600283015490820152600382015460608201526004820154608082015260059091015460ff16151560a082015292915050565b600081815260026020526040902080546001600160a01b03163314610ac85760405162461bcd60e51b815260206004820152601c60248201527f4f6e6c792073656c6c65722063616e2063616e63656c206f726465720000000060448201526064016105a3565b600681015460ff16610b125760405162461bcd60e51b81526020600482015260136024820152724f72646572206973206e6f742061637469766560681b60448201526064016105a3565b600601805460ff1916905550565b6001600160a01b038116600090815260046020908152604091829020805483518184028101840190945280845260609392830182828015610b8057602002820191906000526020600020905b815481526020019060010190808311610b6c575b50505050509050919050565b610b946114fd565b6000818152600260205260409020600681015460ff16610bec5760405162461bcd60e51b81526020600482015260136024820152724f72646572206973206e6f742061637469766560681b60448201526064016105a3565b8054336001600160a01b0390911603610c475760405162461bcd60e51b815260206004820152601a60248201527f43616e6e6f742062757920796f7572206f776e20656e6572677900000000000060448201526064016105a3565b80600401548160050154610c5b919061173a565b421115610c9e5760405162461bcd60e51b815260206004820152601160248201527013dc99195c881a185cc8195e1c1a5c9959607a1b60448201526064016105a3565b80600301543414610cf15760405162461bcd60e51b815260206004820152601860248201527f496e636f7272656374207061796d656e7420616d6f756e74000000000000000060448201526064016105a3565b600061271060085434610d049190611798565b610d0e91906117af565b90506000610d1c82346117d1565b83546001600160a01b0316600090815260036020526040812080549293508392909190610d4a90849061173a565b909155505060068301805460ff191690556007805460009182610d6c83611753565b909155506040805160c0810182523380825287546001600160a01b0390811660208085019182528486018c815234606087019081524260808801908152600160a0890181815260098054808401825560009182529a516006909b027f6e1540171b6c0c960b71a7020d9f60077f6af931a8bbf590da0223dacf75c7af810180549c8b166001600160a01b03199d8e1617905597517f6e1540171b6c0c960b71a7020d9f60077f6af931a8bbf590da0223dacf75c7b08901805491909a169b169a909a1790975592517f6e1540171b6c0c960b71a7020d9f60077f6af931a8bbf590da0223dacf75c7b186015590517f6e1540171b6c0c960b71a7020d9f60077f6af931a8bbf590da0223dacf75c7b2850155517f6e1540171b6c0c960b71a7020d9f60077f6af931a8bbf590da0223dacf75c7b384015592517f6e1540171b6c0c960b71a7020d9f60077f6af931a8bbf590da0223dacf75c7b4909201805492151560ff19909316929092179091559183526005909152919020919250610ef390836117d1565b815460018181018455600093845260208085209092019290925586546001600160a01b0316835260059052604090912090610f2e90836117d1565b815460018101835560009283526020928390200155845460405134815287926001600160a01b039092169133917f1cbe81348d01d294ac68391c5ba74e03143dc0a19a85ee2dfb5adeca547fc5e2910160405180910390a450505050610f946001600055565b50565b6000808411610ff45760405162461bcd60e51b8152602060048201526024808201527f456e6572677920616d6f756e74206d75737420626520677265617465722074686044820152630616e20360e41b60648201526084016105a3565b600083116110445760405162461bcd60e51b815260206004820152601c60248201527f5072696365206d7573742062652067726561746572207468616e20300000000060448201526064016105a3565b600082116110945760405162461bcd60e51b815260206004820152601f60248201527f4475726174696f6e206d7573742062652067726561746572207468616e20300060448201526064016105a3565b60006110a08486611798565b6006805491925060009190826110b583611753565b909155506040805160e0810182523380825260208083018b81528385018b815260608086018a8152608087018d81524260a08901908152600160c08a0181815260008d81526002808b528d82209c518d546001600160a01b0319166001600160a01b03909116178d5598518c8401559651978b0197909755925160038a015590516004808a01919091559051600589015593516006909701805460ff19169715159790971790965584825291835285812080549586018155815282902090930185905583518b81529081018a90529283018690529293508392917f0e28c4ffefbb83734284fcf455a42fb5ad1bba469e4397559ba4a0577a0cb5a0910160405180910390a395945050505050565b6111cb611527565b61095d6000611554565b600460205281600052604060002081815481106111f157600080fd5b90600052602060002001600091509150505481565b6009818154811061121657600080fd5b60009182526020909120600690910201805460018201546002830154600384015460048501546005909501546001600160a01b0394851696509390921693909260ff1686565b611264611527565b6101f48111156112ad5760405162461bcd60e51b81526020600482015260146024820152734665652063616e6e6f742065786365656420352560601b60448201526064016105a3565b600855565b600560205281600052604060002081815481106111f157600080fd5b6112d6611527565b47600060015b600654811015611347576000818152600260205260409020546001600160a01b031615611335576000818152600260209081526040808320546001600160a01b031683526003909152902054611332908361173a565b91505b8061133f81611753565b9150506112dc565b50600061135482846117d1565b9050600081116113a65760405162461bcd60e51b815260206004820152601c60248201527f4e6f20706c6174666f726d206665657320746f2077697468647261770000000060448201526064016105a3565b60006113ba6001546001600160a01b031690565b6001600160a01b03168260405160006040518083038185875af1925050503d8060008114611404576040519150601f19603f3d011682016040523d82523d6000602084013e611409565b606091505b50509050806114525760405162461bcd60e51b8152602060048201526015602482015274119959481dda5d1a191c985dd85b0819985a5b1959605a1b60448201526064016105a3565b50505050565b6001600160a01b038116600090815260056020908152604091829020805483518184028101840190945280845260609392830182828015610b805760200282019190600052602060002090815481526020019060010190808311610b6c5750505050509050919050565b6114ca611527565b6001600160a01b0381166114f457604051631e4fbdf760e01b8152600060048201526024016105a3565b610f9481611554565b60026000540361152057604051633ee5aeb560e01b815260040160405180910390fd5b6002600055565b6001546001600160a01b0316331461095d5760405163118cdaa760e01b81523360048201526024016105a3565b600180546001600160a01b038381166001600160a01b0319831681179093556040519116919082907f8be0079c531659141344cd1fd0a4f28419497f9722a3daafe3b4186f6b6457e090600090a35050565b602080825282518282018190526000919060409081850190868401855b8281101561162657815180516001600160a01b0316855286810151878601528581015186860152606080820151908601526080808201519086015260a0808201519086015260c09081015115159085015260e090930192908501906001016115c3565b5091979650505050505050565b80356001600160a01b038116811461164a57600080fd5b919050565b60006020828403121561166157600080fd5b61166a82611633565b9392505050565b60006020828403121561168357600080fd5b5035919050565b6020808252825182820181905260009190848201906040850190845b818110156116c2578351835292840192918401916001016116a6565b50909695505050505050565b6000806000606084860312156116e357600080fd5b505081359360208301359350604090920135919050565b6000806040838503121561170d57600080fd5b61171683611633565b946020939093013593505050565b634e487b7160e01b600052601160045260246000fd5b8082018082111561174d5761174d611724565b92915050565b60006001820161176557611765611724565b5060010190565b634e487b7160e01b600052604160045260246000fd5b634e487b7160e01b600052603260045260246000fd5b808202811582820484141761174d5761174d611724565b6000826117cc57634e487b7160e01b600052601260045260246000fd5b500490565b8181038181111561174d5761174d61172456fea2646970667358221220f1e743fe3cd530b3b0e71fb485a584abfe0b9cd18cbe4b65746ce3992ec0e22164736f6c63430008140033",
  "linkReferences": {},
  "deployedLinkReferences": {}
}